:0A00000046C0FECFFDCFFCCFFBCFC2
:10000A00FACFF9CFF8CFF7CF69C0F5CFF4CFF3CF56
:10001A00F2CFF1CFF0CFEFCFEECFEDCF000000005F
:10002A0000000000553D252E31664200553D252E23
:10003A0032664200493D252E32664100493D252D52
:10004A0033646D4100446576656C6F706564206940
:10005A006E004E4B50542D323031370080C02D4E39
:10006A00414E000001002D4E414E00494E4600000F
:10007A000800030026000200C80166000100CC0146
:10008A006E000000F894EE27ECBBF1E0FBBFEBBF7B
:10009A00E5BF8DE0A2E0BB27ED938A95E9F780E002
:1000AA0094E0A0E6ED930197E9F7EAE7F0E085919D
:1000BA009591009761F0A591B59105901590BF01B2
:1000CA00F00105900D920197E1F7FB01F0CFEFE502
:1000DA00EDBFE4E0EEBFC0E6D1E0CAC10A921A92CF
:1000EA00FA926A937A938A939A93AA93BA93EA931F
:1000FA00FA93EFB7EA93E4E06E1628F5E62DE06C82
:10010A00E7B9369A349BFECF349AE62DE03029F4CB
:10011A00FED500D608D60CD614C0E13029F4F7D59E
:10012A0010D601D617D60DC0E23029F4F0D51BD669
:10013A00FAD522D606C0E33021F4E9D526D6F3D57E
:10014A002DD66394D8CF66244394E0E1E41509F0F0
:10015A0077C033944424DED52AD6EAD5E0918801C3
:10016A00F091890160918A0170918B0126D6A8D8F5
:10017A00E0939801F093990160939A0170939B011F
:10018A00E0D515D6E7D5E0919001F0919101609103
:10019A009201709193011AD693D8E093A001F0933B
:1001AA00A1016093A2017093A301DDD500D6E4D525
:1001BA00E0918C01F0918D0160918E0170918F0117
:1001CA000ED67ED8E0939C01F0939D0160939E0128
:1001DA0070939F01DAD5EBD5E1D5E0919401F091C6
:1001EA009501609196017091970102D669D8E093C2
:1001FA00A401F093A5016093A6017093A701E0E022
:10020A00E0938801E0938901E0938A01E0938B01EE
:10021A00E0939001E0939101E0939201E0939301BE
:10022A00E0938C01E0938D01E0938E01E0938F01BE
:10023A00E0939401E0939501E0939601E09397018E
:10024A00E0E2E31509F006C13324B7D5DAD5E09325
:10025A00A801F093A9016093AA017093AB01B6D5E6
:10026A00D0D5E093B001F093B1016093B2017093DD
:10027A00B301B5D5C6D5E093AC01F093AD01609357
:10028A00AE017093AF01B4D5BCD5E093B401F0933D
:10029A00B5016093B6017093B701E0E0E09398016D
:1002AA00E0939901E0939A01E0939B01E093A00106
:1002BA00E093A101E093A201E093A301E0939C01E2
:1002CA00E0939D01E0939E01E0939F01E093A401D6
:1002DA00E093A501E093A601E093A701A091B001E4
:1002EA00B091B1018091B2019091B30190D595D5A9
:1002FA00A091B401B091B5018091B6019091B70176
:10030A0086D594D5A091A801B091A9018091AA019E
:10031A009091AB017CD593D5E093B801F093B901E4
:10032A006093BA017093BB01A091AC01B091AD0189
:10033A008091AE019091AF016AD581D5E093BC015D
:10034A00F093BD016093BE017093BF01E0E07DD5DB
:10035A00A091B801B091B9018091BA019091BB0105
:10036A0077D509F008F404C079D5EEE2F0E003C0CD
:10037A0075D5E6E3F0E0FA93EA93E091B801F091DB
:10038A00B9016091BA017091BB016DD5A0E6B1E0E7
:10039A00DCD0E0E06DD56FD577D509F008F404C05C
:1003AA0079D57DD581D50DC066D587D536D57CD58D
:1003BA0014D77E2E8F2E6ED586D5E72DF82D66277B
:1003CA00772705D984E092D32896AAE6B1E0BDD072
:1003DA00E9E03BD5A091BC01B091BD018091BE017D
:1003EA009091BF0135D509F008F404C071D5EEE249
:1003FA00F0E003C06DD5E6E3F0E0FA93EA93E0910A
:10040A00BC01F091BD016091BE017091BF012BD575
:10041A00A4E7B1E09AD0E9E02BD55FD535D509F04C
:10042A0008F404C063D53BD566D50DC056D545D56D
:10043A00FDD461D5D2D69E2EAF2E58D544D5E92DFE
:10044A00FA2D66277727C3D884E050D32896AEE7DB
:10045A00B1E07BD0E991EFBFF991E991B991A99106
:10046A009991899179916991F990199009901895C2
:10047A00E0E7E4BBE0E0E5BBE1BBE2BBE2E0E3BF0F
:10048A00E1E0E9BFE0E8E8B9E0ECE7B9E5E9E6B9B7
:10049A00E0E0E0BFA0E17AD0E2E0D7D4AFE4B0E098
:1004AA0063D0E3E0E5D4ACE5B0E05ED0A0EDB7E020
:1004BA0057D62CD0E0E0E2BF7894FFCFFFCFAA93C3
:1004CA00E2B3EF70AE2FE881E07FEA2BE2BB1CD5E6
:1004DA00929A1AD5929818D581C0AA93A881EFDF6B
:1004EA00E881E295E883A881EADF85E88A95F1F751
:1004FA0075C0AA93E881F0E0E853FE4FE081A98134
:10050A00AE0FEBDF5980C88022960895A2E000D58D
:10051A00ACE0E3DFA1E0FCD4E0E0CE2E5E2E08954D
:10052A00AA93A881AA3011F05B1448F0E0E0EA939C
:10053A00C394AC2DDEDFA881AA3009F44FC05394CE
:10054A00909AA881CADF909849C0BA93AA931A933D
:10055A00A981BA81ED91A983BA831E2FE03019F0DF
:10056A00A12FDEDFF5CF0FC0D7D41A93E981FA8124
:10057A003196E983FA833197E4911E2FE03019F01E
:10058A00A12FCEDFF3CF188123960895AA93E1B362
:10059A00E06FE1BB8A9A889A899A92989098919882
:1005AA00B880E881E058E093CA01E881E054E0931A
:1005BA00CB01A4E1B0E0D4D5B2D4B1D4B0D4A0E296
:1005CA007EDF88EC90E00197F1F7A8E286DFA4E0ED
:1005DA0084DFA5E882DFA6E080DF98DF2196089510
:1005EA009BD414D8A3D41296D9D73097F1F09ED4BD
:1005FA00A0D48F01309761F00230E0E01E0770F05E
:10060A00F80131978F01AA81BB811496ED93FC936F
:10061A008DD4129691D43197AC81A08387D4BED75A
:10062A00FF2312F083D488D405C080D4EFEFFFEF04
:10063A00ED93FC93F2D72596089584D4E0E8EA83F3
:10064A00EFE3EB83E1D7EE85FF85EF3FAFEFFA07E4
:10065A0029F47ED4A8E6B0E073D277C0EF3FAFE7C3
:10066A00FA0729F475D4A9E6B0E06AD26EC0AB8560
:10067A00A73010F0E6E0EB871B856FD411F071D438
:10068A00FCCF7DD4BBD719F430E06BD41BC03B85BB
:10069A007BD409F008F407C064D476D418F07ED469
:1006AA0082D4FBCF08C070D428F478D487D48CD4F1
:1006BA003150F9CF56D463D48CD486D465D410F093
:1006CA006DD471D410E0EB85E117F8F088D48CD49E
:1006DA0080D4DF01CB0187D2EC83FD836E837F83D5
:1006EA005DD48CD67AD50E2F85D48BD48FD477D47B
:1006FA0037D654D476D7DDD567D4E12F1F5FE030E3
:10070A0011F778D4EEE2EC93DECF85D43197AA853F
:10071A00A08330302CF43195A885B985EDE203C069
:10072A00A885B985EBE2EC9376D475D47AD4F0D661
:10073A00E05DDB01EC936FD474D414D7E05DDB0188
:10074A00EC93A885B985E0E0EC9365D760960895A7
:10075A00E3D3EF97619756D710E0FE01E85AFF4FAF
:10076A000190F081E02DE887F987FE01EA5AFF4FF0
:10077A000190F081E02DEE83FF8358D4E0E0F0E0B1
:10078A00ED93FC93DE01A45ABF4FD6D33197E4917F
:10079A002E2FE03009F4A4C1E12FE03031F42532E4
:1007AA0011F411E001C045D49AC1E130B9F42532FF
:1007BA0011F43FD493C112E0E0E0ED8B00E02D325A
:1007CA0011F401E08CC12B3219F4EBE2ED8B87C1F5
:1007DA00203219F4E0E2ED8B82C102C0E23039F432
:1007EA0050E013E0203311F4006879C102C0E3300D
:1007FA0091F4203310F02A3308F007C0AAE05A9F78
:10080A00502DE22FE0535E0F6AC140E02E3211F400
:10081A0014E065C10FC0E43099F4203310F02A3394
:10082A0008F008C00062AAE04A9F402DE22FE05378
:10083A004E0F55C12C3619F4026015E050C103C0A1
:10084A00E53009F04CC1E22FE33639F4F9D3FFD38E
:10085A00F7D3A481AA9302D441C1E53411F0E53655
:10086A0009F402C0E636A9F5FFD303D49BD608D40F
:10087A000CD4AD85AA2332F0AD89AB3241F0A03257
:10088A0061F012C004D476D4FBD3EDE2ED8B07FFFE
:10089A0004C0ED89EA93E2D307C0EE85FF8531965D
:1008AA00FBD33197AD89A08305FF46E0263639F49C
:1008BA00EED38DD64A93AB89BC89A5D107C0E7D3BD
:1008CA0086D64A932A93AC89BD89B7DECDD3E7D3BE
:1008DA0018C0E33729F4D9D3E7D3DED3E0D30AC06B
:1008EA00E037A1F4D2D3E0D3D7D3AE85BF853FD1C9
:1008FA001E2F08600F77403011F0411708F001C031
:10090A00142F40E0E0E0EC8B30E05EC0E43611F0FA
:10091A00E93611F4046002C0E53791F4EAE0EC8BA1
:10092A0001FF07C0E0E0FAEC6AE97BE3BFD31AE013
:10093A001FC0E0E1F7E260E070E0B8D315E018C04C
:10094A00E83511F4086003C0E83709F0C7C0E0E1F0
:10095A00EC8B01FF07C0E0E0F0E060E070E1A6D3B5
:10096A0018E006C0E0E0F0E160E070E09FD314E038
:10097A00403011F00F7701C041E001FF05C085D377
:10098A0078D314960FD60AC002FF04C07ED38CD344
:10099A00ACD504C07AD388D366277727EA87FB8742
:1009AA006C877D8702FF0FC0AD85AA232AF46FD317
:1009BA008ED566D3EDE2ED8BED89E03019F01F5F3D
:1009CA004F5F01C00B7F342F00FD13C0151710F4C1
:1009DA00351708F00EC007FF08C002FF04C00B7FDE
:1009EA002D89115001C020E301C020E222D35150C9
:1009FA00EDCF141780F4006102FF05C05CD309F043
:100A0A00515011504150E0E3EA9328D3503009F095
:100A1A0051504150EECF312FEC89E030A9F43030FB
:100A2A0091F003FF05C0EE85FF85259135D305C0FA
:100A3A00AE85BF852D91AE87BF87FBD2503009F0B6
:100A4A0051503150ECCF41C048D367D52E2F2A30B0
:100A5A0030F003FF02C0295C01C0295A01C0205DA1
:100A6A0004FD1DC0213348F441D3A130E0E0BE07A4
:100A7A00E0E08E07E0E09E0709F40BC0431740F45C
:100A8A00531710F000FF01C00EC020E207FF07C095
:100A9A0020E3006102FF03C00ED309F05150C9D20E
:100AAA00503009F05150315018D368D5E9D2EC8949
:100ABA001DD3FF276627772730D5F8D2E889F98929
:100ACA006A897B899BD509F0BFCF00FF07C05030E8
:100ADA0029F05150E0E2EA93C1D2F9CF10E052CEA8
:100AEA00A5D25CD596D5EF966F960895FF92F82E0B
:100AFA0026978AD500D3309719F4EFEFFFEF1CC081
:100B0A00DE011696E0D48D01F6D2EE83FF83E0E093
:100B1A00E887E987DE011A96D6D440D5F1D21A932E
:100B2A000A93E5EFF2E0ECD2DE011A9611DE9F019C
:100B3A007DD2E0E0EC93F9016ED52A96FF900895F4
:100B4A00EBD1E991F991A991B991CD0105900D9255
:100B5A000020E1F7FC010895DFD1A991B991EE27B0
:100B6A00FF276D91662311F03196FBCF0895D4D1FA
:100B7A00AA27BB27E991F9910590002011F0119657
:100B8A00FBCFFD01089528D57B816A81F981E8812F
:100B9A0077FB770F67FD7160972F9E5781F078F08A
:100BAA00983190F4AA27BB27882708948795B79588
:100BBA00A7959A95D1F7EA23FB23682305C0E89401
:100BCA007727EE27FF2766276F77769508F4606800
:100BDA0077F9A991B99189919991EA17FB07680761
:100BEA00790797FB0895F8D4E8D4CDDFEBD411F454
:100BFA008AD207C0EEF787D2A0E0B0E080E89FE390
:100C0A0058D3249608959ED1E0E0EA83EFE3EB837C
:100C1A00FDD4EB85FC85EF3FAFEFFA0729F475D2D7
:100C2A00A0E7B0E08DDF70C0EF3FAFE7FA0729F425
:100C3A006CD2A1E7B0E084DF67C0AC85AA2332F4A6
:100C4A0067D298D26AD26ED2EDE2EC93A885A73029
:100C5A0010F0E6E0E887188580D121F069D2C4D186
:100C6A006CD2FACF6FD22CD358D210E0E0E0F0E089
:100C7A0060E87FE362D266D206D460F059D29ED190
:100C8A005CD21F5F173228F040D2A5E7B0E058DFE8
:100C9A003BC0F1CF103021F445D2E0E3EC9317C00A
:100CAA005CD1A9F045D2A0D194D1DF01CB019BDF61
:100CBA0044D248D2A3D391D20E2F34D2A2D138D261
:100CCA00A5D14ED348D28DD4F4D227D2E9CFE88524
:100CDA00E030B1F027D2EEE2EC93E885E150E88704
:100CEA00EF5F71F038D26AD118D212D276D20E2FB3
:100CFA0019D287D130D28AD174D4DBD20ED2EDCFB9
:100D0A00AE81BF81E0E0EC9388D42D960895E4B1DA
:100D1A00F5B10895A0918801B091890180918A0165
:100D2A0090918B0108956627772790D2C9D20895AA
:100D3A00E0938801F093890160938A0170938B0193
:100D4A000895A0919001B0919101809192019091A2
:100D5A0093010895E0939001F093910160939201B9
:100D6A00709393010895A0918C01B0918D018091A7
:100D7A008E0190918F010895E0938C01F0938D017B
:100D8A0060938E0170938F010895A0919401B091A0
:100D9A00950180919601909197010895E0939401AD
:100DAA00F093950160939601709397010895E0E09E
:100DBA00F0E060E870E422D30895A0919801B09120
:100DCA00990180919A0190919B010895A091A001A7
:100DDA00B091A1018091A2019091A3010895A091DF
:100DEA009C01B0919D0180919E0190919F0108956F
:100DFA00A091A401B091A5018091A6019091A701AB
:100E0A000895E0E0F0E060E072E4F8D20895EAE0E4
:100E1A00F7ED63E27AE3A4D20895E093C001F09378
:100E2A00C1016093C2017093C3010895E093C401A4
:100E3A00F093C5016093C6017093C7010895A0E0BD
:100E4A00B0E080E491E48CD20895EA93A0E051CB1B
:100E5A00EAE0F7ED6FE171E416D30895E0E6F1E018
:100E6A00FA93EA930895B3D384E040DE289608956E
:100E7A00EA93A1E03ECBA091C001B091C10180915B
:100E8A00C2019091C3010895E7E7FEEB6FE77FE3A4
:100E9A00FAD20895EAE6F1E0FA93EA930895EEE3C6
:100EAA00F0E0FA93EA930895E091C001F091C1014C
:100EBA006091C2017091C3010895E0E0F0E06AE731
:100ECA0074E44ED20895E6E4F0E0FA93EA930895C2
:100EDA00E4E7F1E0FA93EA930895A091C401B0918E
:100EEA00C5018091C6019091C7010895EEE7F1E02E
:100EFA00FA93EA930895E091C401F091C5016091D3
:100F0A00C6017091C70108958DE08A95F1F7089599
:100F1A00E4DAA3E0B0E024C1BA93AA930895A0E367
:100F2A00CEDA88EC90E00197F1F70895AA81BB81A7
:100F3A000895149633D30895ED91FD913196FE9359
:100F4A00EE930895E9DF2497E0E0E883E9830895C2
:100F5A00E885F985FA93EA930895E12F1150E03074
:100F6A000895AC81BD818E819F81E0E0F0E060E26E
:100F7A0071E4F6D1EC83FD836E837F830895EC855B
:100F8A00FD856E857F850895EC81FD816E817F8167
:100F9A00AC85BD858E859F8576D20895AC85BD8545
:100FAA008E859F850895EDECFCEC6CEC7DE3D8D141
:100FBA00EC87FD876E877F873F5F0895E0E0F0E06A
:100FCA0060E271E4CDD10895EC87FD876E877F8753
:100FDA000895A0E0B0E080E09FE372D10895AC816B
:100FEA00BD818E819F810895EDECFCEC6CEC7DE374
:100FFA00B7D10895A885B9851196A887B987119799
:10100A000895E02FE05DEC93E02F0895FF2766270F
:10101A0077271CD10895E885F9853196E887F987FD
:10102A0008953197BF01A32FEAE00895AE81BF81E9
:10103A0008952A93AF81B885E985FA8509950895B7
:10104A00FE01E65AFF4F0190F081E02D0895349792
:10105A00DE01A65ABF4FED93FC930895AF81B88580
:10106A00E985FA8509950895FE017696EE87FF8748
:10107A000895DE01A65ABF4F0D90BC91A02D089588
:10108A00EA87FB876C877D870895DADFE0CFEA85F8
:10109A00FB856C857D850895EE87FF870895AE856B
:1010AA00BF855ADD1E2F0895E4DF43CFE88BF98B05
:1010BA006A8B7B8B08950B7FED89EA93DE01A95A2F
:1010CA00BF4F0D90BC91A02DFE01E75AFF4F019032
:1010DA00F081E02D099550300895E889F9896A89E7
:1010EA007B89AA85BB858C859D850895A889B98940
:1010FA008A899B890895DE011C96E5D14FD208950D
:10110A00FA93EA93089554D20895EE81FF81F8CFB5
:10111A00E985FA856B857C850895E987FA876B8767
:10112A007C87089583DF1196AE83BF831197089554
:10113A00AA81BB818C819D810895EA83FB836C839C
:10114A007D830895EA81FB816C817D81A985BA85B9
:10115A008B859C850895A985BA858B859C8508957C
:10116A00109639F080ED97E00197F1F7A89511975D
:10117A00C9F7089530976040704009F07058089593
:10118A00552342F4503811F4E0FF04C03196691F28
:10119A00791F6BF050E8572711F45F93CFC05F3F78
:1011AA0031F0660F000C57956795752F08955F9378
:1011BA0000200AF0CFC0C8C050E8192E1522880FA7
:1011CA00991F9527550F879550E8072E0522660F18
:1011DA00771F7527550F67950895689401C0E8949D
:1011EA005F93F2DF703818F07F3F08F4A7C056E12A
:1011FA00571BAAF4519558300EF4593030F0EFEFDE
:10120A00FFEF6FEF7FE777F91AC077275523B9F019
:10121A00EE0FFF1F661F771F5A95D1F710C0772769
:10122A00583028F0EF2FF62F672F5850F9CF552353
:10123A0031F076956795F795E7955A95D1F700209D
:10124A000AF445D15F910895689401C0E8943097F3
:10125A0060407040B1F0002426F0772312F4009425
:10126A0036D1172E7EE1112032F07A95EE0FFF1F4C
:10127A00661F111CF9CFEF2FF62F612D5F938ADFBE
:10128A005F9108954F93AF01FD01DA01AB01BC01F3
:10129A00CA01402D012C142E4F910895EA0FFB1F0D
:1012AA00681F0895E095F0956095EF5FFF4F6F4FC7
:1012BA0008955F9381DF903871F150E8152604C0D4
:1012CA005F937ADF903839F1703821F1572F591B23
:1012DA002BF112F4D7DFFACF583118F0AA27BB271F
:1012EA008827583028F0AB2FB82F88275850F9CFC5
:1012FA00552329F08695B795A7955A95D9F7502D74
:10130A00512572F0CBDF38F46795F795E795739519
:10131A0013F420C0B7DF3EDF5F910895D8F7FBCF03
:10132A00EA1BFB0B680B51F010F40094BBDF662339
:10133A0092F3EE0FFF1F661F7A95CBF7EE27FF2772
:10134A00662777275F910895EFEFFFEF6FE77FEF4B
:10135A005F910895EFEFFFEF6FE77FE75F910895E1
:10136A005F932ADF703851F3903841F301240894CF
:10137A00791F23F41CF300203AF3ECCF0F921F934A
:10138A002F933F934F93112722279927689FA001F4
:10139A008F9F302D410D591F6B9F300D411D591FD5
:1013AA008E9F27D0BF9F25D06A9F23D0BE9F1DD076
:1013BA00AF9F1BD0AE9F110D291F391F491F591FFF
:1013CA00E32FF42F652F522F4F913F912F911F91A9
:1013DA000F9066232AF0550FEE1FFF1F661F02C0EB
:1013EA0073954BF2CDDE5F910895100D211D391FC3
:1013FA0002C0200D311D491F591F08955F93DCDE7D
:10140A00703821F411200AF49FCFA4CF903809F440
:10141A0095CF01240894970B1BF4D4F30020F3CF43
:10142A00792F1F932F933F934F931124112722272C
:10143A0033274427552790E2AE17BF07860741078F
:10144A0030F0AE1BBF0B860B410B089401C0889489
:10145A00551F221F331F111CAA1FBB1F881F441FA1
:10146A009A9551F7F901612D4F913F912F911F9153
:10147A00662332F0550FEE1FFF1F661F7A9543F25F
:10148A007FDE5F91089599239AF0772342F09717A8
:10149A0048F029F4AE17BF07860720F031F0989478
:1014AA0088940895989408940895189488940895AF
:1014BA007723C2F7971798F3A9F7EA17FB07680784
:1014CA0088F399F3ECCF0024AF0DB01D0895F09581
:1014DA0060957095E195FF4F6F4F7F4F0895FE2FEE
:1014EA00FF0FFF0B6F2F7F2F08956F2F660F660B6D
:1014FA00762F0895002498E0AA0F001C0E1A10F403
:10150A000E0E01C0A1609A95B9F7EA2FA02D089591
:10151A0039D0F0DF0EF4E19508953F934F935F932E
:10152A00002411244427552730E2AA0FBB1F881F25
:10153A00991F001C111C441F551F0E1A1F0A460B27
:10154A00570B28F40E0E1F1E461F571F01C0A1601D
:10155A003A9559F7FD01BC01D001CA015F914F913B
:10156A003F910895E894A7FF02C0A1956894E7FD0A
:10157A00E195C0DFEA2F0EF4E1950895CEDFFD0173
:10158A00BC010895E894E7FF02C0E1956894A7FFBB
:10159A0004C0A19500F8039400FA0895ED91FC9116
:1015AA0011970895ED91FD916D917C91139708958E
:1015BA00E881F9816A817B810895A881B9818A814C
:1015CA009B810895E883F9836A837B8308957A93DC
:1015DA006A93FA93EA9308959A938A93BA93AA9389
:1015EA000895182E862F612D192E972F712D1B2ED7
:1015FA00BF2FF12D1A2EAE2FE12D0895309760409E
:10160A00704008955A934A933A932A931A930A93E5
:10161A0008955D814C813B812A8119810881089551
:00000001FF
