:0A00000046C0FECFFDCFFCCFFBCFC2
:10000A00FACFF9CFF8CFF7CF69C0F5CFF4CFF3CF56
:10001A00F2CFF1CFF0CFEFCFEECFEDCF000000005F
:10002A0000000000553D252E31664200553D252E23
:10003A0032664200493D252E32664100493D252D52
:10004A0033646D4100446576656C6F706564206940
:10005A006E004E4B50542D323031370080C02D4E39
:10006A00414E000001002D4E414E00494E4600000F
:10007A000800040026000200C80166000100CC0145
:10008A006E000000F894EE27ECBBF1E0FBBFEBBF7B
:10009A00E5BF8DE0A2E0BB27ED938A95E9F780E002
:1000AA0094E0A0E6ED930197E9F7EAE7F0E085919D
:1000BA009591009761F0A591B59105901590BF01B2
:1000CA00F00105900D920197E1F7FB01F0CFEFE502
:1000DA00EDBFE4E0EEBFC0E6D1E00BC20A921A928D
:1000EA00FA926A937A938A939A93AA93BA93EA931F
:1000FA00FA93EFB7EA93E0E0E3BFE2BFE4E07E16EB
:10010A0028F5E72DE06CE7B9369A349BFECF349A8E
:10011A00E72DE03029F439D63BD643D647D614C06A
:10012A00E13029F432D64BD63CD652D60DC0E23055
:10013A0029F42BD656D635D65DD606C0E33021F43F
:10014A0024D661D62ED668D67394D8CF7724539402
:10015A00E0E1E51509F077C04394552419D665D630
:10016A0025D6E0918801F091890160918A01709108
:10017A008B0161D607D9E0939801F09399016093B6
:10018A009A0170939B011BD650D622D6E09190011A
:10019A00F0919101609192017091930155D6F2D834
:1001AA00E093A001F093A1016093A2017093A301CF
:1001BA0018D63BD61FD6E0918C01F0918D01609143
:1001CA008E0170918F0149D6DDD8E0939C01F0939E
:1001DA009D0160939E0170939F0115D626D61CD669
:1001EA00E0919401F09195016091960170919701C7
:1001FA003DD6C8D8E093A401F093A5016093A60167
:10020A007093A701E0E0E0938801E0938901E0930D
:10021A008A01E0938B01E0939001E0939101E093CE
:10022A009201E0939301E0938C01E0938D01E093B6
:10023A008E01E0938F01E0939401E0939501E0939E
:10024A009601E0939701E0E4E41509F042C14424E1
:10025A00F2D515D6E093A801F093A9016093AA01FB
:10026A007093AB01F1D50BD6E093B001F093B101D5
:10027A006093B2017093B301F0D501D6E093AC015B
:10028A00F093AD016093AE017093AF01EFD5F7D54E
:10029A00E093B401F093B5016093B6017093B7018E
:1002AA00E0E0E0939801E0939901E0939A01E093EA
:1002BA009B01E093A001E093A101E093A201E093E6
:1002CA00A301E0939C01E0939D01E0939E01E093DA
:1002DA009F01E093A401E093A501E093A601E093B6
:1002EA00A701D3D5F1D9CCF4A091B001B091B10155
:1002FA008091B2019091B301D1D5D6D5DED5E6D59C
:10030A00EED57F936F93FF93EF93BFD5EED5AF9161
:10031A00BF918F919F91EFD50BC0E0E0E093C001B0
:10032A00E093C101E093C201E093C301CFD5D7D5D1
:10033A00E093B801F093B9016093BA017093BB01DD
:10034A00DDD5C2D9CCF4A091B401B091B5018091A8
:10035A00B6019091B701A2D5A7D5D9D5E1D5BFD518
:10036A007F936F93FF93EF93C9D5BFD5AF91BF9199
:10037A008F919F91C0D50BC0E0E0E093C401E09358
:10038A00C501E093C601E093C701CAD5A8D5E09399
:10039A00BC01F093BD016093BE017093BF01A091AF
:1003AA00BB01AA234AF4E0E0E093B801E093B90163
:1003BA00E093BA01E093BB01A091BF01AA234AF4DA
:1003CA00E0E0E093BC01E093BD01E093BE01E0935D
:1003DA00BF01E0E0AED5A091B801B091B90180911A
:1003EA00BA019091BB01A8D509F008F404C0AAD5B6
:1003FA00EEE2F0E003C0A6D5E6E3F0E0FA93EA9372
:10040A00E091B801F091B9016091BA017091BB0114
:10041A009ED5A0E6B1E0DAD0E0E09ED536D59FD5EC
:10042A0009F008F404C0A1D5A5D5A9D50BC02DD5CE
:10043A00AFD543D5A4D533D74F0197D5AFD5F4015E
:10044A006627772726D984E091D32896AAE6B1E0D1
:10045A00BDD0E9E06ED5A091BC01B091BD018091FB
:10046A00BE019091BF0168D509F008F404C09BD57C
:10047A00EEE2F0E003C097D5E6E3F0E0FA93EA9300
:10048A00E091BC01F091BD016091BE017091BF0184
:10049A005ED5A4E7B1E09AD0E9E05ED52FD55FD565
:1004AA0009F008F404C084D565D587D50BC026D5D4
:1004BA006FD52DD582D5F3D65F017AD56FD5F501E3
:1004CA0066277727E6D884E051D32896AEE7B1E0CD
:1004DA007DD0E2E0E3BFE991EFBFF991E991B991EB
:1004EA00A9919991899179916991F99019900990B5
:1004FA001895E0E7E4BBE0E0E5BBE1BBE2BBE2E084
:10050A00E3BFE1E0E9BFE0E8E8B9E0ECE7B9E6E833
:10051A00E6B9E0E0E0BFA0E17AD0E2E00AD5AFE4D4
:10052A00B0E063D0E3E018D5ACE5B0E05ED0A0ED72
:10053A00B7E078D62CD0E0E0E2BF7894FFCFFFCFC7
:10054A00AA93E2B3EF70AE2FE881E07FEA2BE2BB19
:10055A003DD5929A3BD5929839D581C0AA93A88164
:10056A00EFDFE881E295E883A881EADF85E88A95EA
:10057A00F1F775C0AA93E881F0E0E853FE4FE081F5
:10058A00A981AE0FEBDF6980D88022960895A2E098
:10059A0021D5ACE0E3DFA1E01DD5E0E0DE2E6E2E32
:1005AA000895AA93A881AA3011F06C1448F0E0E0EB
:1005BA00EA93D394AD2DDEDFA881AA3009F44FC0A7
:1005CA006394909AA881CADF909849C0BA93AA9373
:1005DA001A93A981BA81ED91A983BA831E2FE030BB
:1005EA0019F0A12FDEDFF5CF0FC0F8D41A93E981F5
:1005FA00FA813196E983FA833197E4911E2FE0302C
:10060A0019F0A12FCEDFF3CF188123960895AA936C
:10061A00E1B3E06FE1BB8A9A889A899A9298909896
:10062A009198C880E881E058E093CA01E881E054D3
:10063A00E093CB01A4E1B0E0F5D5D3D4D2D4D1D4A0
:10064A00A0E27EDF88EC90E00197F1F7A8E286DF6E
:10065A00A4E084DFA5E882DFA6E080DF98DF2196A8
:10066A000895BCD43BD8C4D41296FAD73097F1F087
:10067A00BFD4C1D48F01309761F00230E0E01E0789
:10068A0070F0F80131978F01AA81BB811496ED931E
:10069A00FC93AED41296B2D43197AC81A083A8D47D
:1006AA00DFD7FF2312F0A4D4A9D405C0A1D4EFEF59
:1006BA00FFEFED93FC9319D825960895A5D4E0E8A9
:1006CA00EA83EFE3EB8308D8EE85FF85EF3FAFEFD0
:1006DA00FA0729F49FD4A8E6B0E072D276C0EF3FB9
:1006EA00AFE7FA0729F496D4A9E6B0E069D26DC05B
:1006FA00AB85A73010F0E6E0EB871B8590D411F0AC
:10070A0092D4FCCF9ED4DCD719F430E08CD41BC031
:10071A003B859CD409F008F407C085D497D418F017
:10072A009FD4A3D4FBCF08C091D428F499D4A8D4D9
:10073A00ADD43150F9CF77D484D4ADD4A7D486D4EC
:10074A0010F08ED492D410E0EB85E117F0F0A9D422
:10075A00ADD4A1D4DF01CB0186D2EC83FD836E83B5
:10076A007F837ED4ADD69BD50E2FA6D4ACD4B0D47D
:10077A0098D458D675D4BFD389D4E12F1F5FE030FF
:10078A0019F79AD4EEE2EC93DFCFA7D43197AA8572
:10079A00A08330302CF43195A885B985EDE203C0E9
:1007AA00A885B985EBE2EC9398D497D49CD412D758
:1007BA00E05DDB01EC9391D496D436D7E05DDB01A2
:1007CA00EC93A885B985E0E0EC938DD760960895FF
:1007DA0005D4EF9761977ED710E0FE01E85AFF4FE4
:1007EA000190F081E02DE887F987FE01EA5AFF4F70
:1007FA000190F081E02DEE83FF837AD4E0E0F0E00F
:10080A00ED93FC93DE01A45ABF4FF8D33197E491DC
:10081A002E2FE03009F4A4C1E12FE03031F4253263
:10082A0011F411E001C067D49AC1E130B9F425325C
:10083A0011F461D493C112E0E0E0ED8B00E02D32B7
:10084A0011F401E08CC12B3219F4EBE2ED8B87C174
:10085A00203219F4E0E2ED8B82C102C0E23039F4B1
:10086A0050E013E0203311F4006879C102C0E3308C
:10087A0091F4203310F02A3308F007C0AAE05A9FF7
:10088A00502DE22FE0535E0F6AC140E02E3211F480
:10089A0014E065C10FC0E43099F4203310F02A3314
:1008AA0008F008C00062AAE04A9F402DE22FE053F8
:1008BA004E0F55C12C3619F4026015E050C103C021
:1008CA00E53009F04CC1E22FE33639F41BD421D4C8
:1008DA0019D4A481AA9324D441C1E53411F0E53690
:1008EA0009F402C0E636A9F521D425D4BDD62AD406
:1008FA002ED4AD85AA2332F0AD89AB3241F0A032B5
:10090A0061F012C026D498D41DD4EDE2ED8B07FF16
:10091A0004C0ED89EA9304D407C0EE85FF853196B9
:10092A001DD43197AD89A08305FF46E0263639F4F8
:10093A0010D4AFD64A93AB89BC89A5D107C009D4D4
:10094A00A8D64A932A93AC89BD89B8DEEFD309D4D5
:10095A0018C0E33729F4FBD309D400D402D40AC05F
:10096A00E037A1F4F4D302D4F9D3AE85BF853FD1E1
:10097A001E2F08600F77403011F0411708F001C0B0
:10098A00142F40E0E0E0EC8B30E05EC0E43611F07A
:10099A00E93611F4046002C0E53791F4EAE0EC8B21
:1009AA0001FF07C0E0E0FAEC6AE97BE3E1D31AE071
:1009BA001FC0E0E1F7E260E070E0DAD315E018C0AA
:1009CA00E83511F4086003C0E83709F0C7C0E0E170
:1009DA00EC8B01FF07C0E0E0F0E060E070E1C8D313
:1009EA0018E006C0E0E0F0E160E070E0C1D314E096
:1009FA00403011F00F7701C041E001FF05C0A7D3D5
:100A0A009AD3149631D60AC002FF04C0A0D3AED33B
:100A1A00CED504C09CD3AAD366277727EA87FB875B
:100A2A006C877D8702FF0FC0AD85AA232AF491D374
:100A3A00B0D588D3EDE2ED8BED89E03019F01F5F78
:100A4A004F5F01C00B7F342F00FD13C0151710F440
:100A5A00351708F00EC007FF08C002FF04C00B7F5D
:100A6A002D89115001C020E301C020E244D3515026
:100A7A00EDCF141780F4006102FF05C07ED309F0A0
:100A8A00515011504150E0E3EA934AD3503009F0F3
:100A9A0051504150EECF312FEC89E030A9F430307B
:100AAA0091F003FF05C0EE85FF85259157D305C058
:100ABA00AE85BF852D91AE87BF871DD3503009F013
:100ACA0051503150ECCF41C06AD389D52E2F2A30EC
:100ADA0030F003FF02C0295C01C0295A01C0205D21
:100AEA0004FD1DC0213348F463D3A130E0E0BE0702
:100AFA00E0E08E07E0E09E0709F40BC0431740F4DC
:100B0A00531710F000FF01C00EC020E207FF07C014
:100B1A0020E3006102FF03C030D309F05150EBD249
:100B2A00503009F0515031503AD38AD50BD3EC8961
:100B3A003FD3FF276627772752D51AD3E889F98941
:100B4A006A897B89BDD509F0BFCF00FF07C0503045
:100B5A0029F05150E0E2EA93E3D2F9CF10E052CE05
:100B6A00C7D27ED5BED5EF966F960895FF92F82E1E
:100B7A002697B2D522D3309719F4EFEFFFEF1CC0B6
:100B8A00DE01169602D58D0118D3EE83FF83E0E0CD
:100B9A00E887E987DE011A96F8D462D513D31A9347
:100BAA000A93E6E3F3E00ED3DE011A9611DE9F0103
:100BBA009FD2E0E0EC93F90196D52A96FF9008952A
:100BCA000DD2E991F991A991B991CD0105900D92B2
:100BDA000020E1F7FC01089501D2A991B991EE270D
:100BEA00FF276D91662311F03196FBCF0895F6D158
:100BFA00AA27BB27E991F9910590002011F01196D7
:100C0A00FBCFFD0108954AD57B816A81F981E8818C
:100C1A0077FB770F67FD7160972F9E5781F078F009
:100C2A00983190F4AA27BB27882708948795B79507
:100C3A00A7959A95D1F7EA23FB23682305C0E89480
:100C4A007727EE27FF2766276F77769508F460687F
:100C5A0077F9A991B99189919991EA17FB076807E0
:100C6A00790797FB08951AD50AD5CDDF0DD511F46A
:100C7A00ACD207C0EEF7A9D2A0E0B0E080E89FE3CB
:100C8A007AD324960895C0D1E0E0EA83EFE3EB83B8
:100C9A0025D5EB85FC85EF3FAFEFFA0729F497D20C
:100CAA00A0E7B0E08DDF6EC0EF3FAFE7FA0729F4A7
:100CBA008ED2A1E7B0E084DF65C0AC85AA2332F406
:100CCA0089D2BAD28CD290D2EDE2EC93A885A73021
:100CDA0010F0E6E0E8871885A2D121F08BD2E6D1A0
:100CEA008ED2FACF91D24ED37AD210E0E0E0F0E081
:100CFA0060E87FE384D288D228D460F07BD2C0D166
:100D0A007ED21F5F173228F062D2A5E7B0E058DF23
:100D1A0039C0F1CF103021F467D2E0E3EC9316C06A
:100D2A007ED1A1F067D2C2D1B6D1DF01CB019BDF60
:100D3A0066D26AD2C5D3B3D20E2F56D2C4D15AD2F2
:100D4A00C7D170D36AD2D7D04AD2EACFE885E03089
:100D5A00A9F04AD2EEE2EC93E885E150E887EF5F2A
:100D6A0069F05BD28DD13BD235D299D20E2F3CD2CB
:100D7A00AAD153D2ADD1BFD032D2EECFAE81BF818C
:100D8A00E0E0EC93B2D42D960895E4B1F5B108955C
:100D9A00A0918801B091890180918A0190918B017B
:100DAA00089566277727B4D2EDD20895E093880193
:100DBA00F093890160938A0170938B010895A09141
:100DCA009001B091910180919201909193010895BF
:100DDA00E0939001F09391016093920170939301D3
:100DEA000895A0918C01B0918D0180918E0190910E
:100DFA008F010895E0938C01F0938D0160938E0129
:100E0A0070938F010895A0919401B09195018091FA
:100E1A009601909197010895E0939401F0939501BA
:100E2A0060939601709397010895E0E0F0E060E81E
:100E3A0070E446D30895A0919801B09199018091E8
:100E4A009A0190919B010895A091A001B091A101EE
:100E5A008091A2019091A3010895A0919C01B09163
:100E6A009D0180919E0190919F010895A091A401F6
:100E7A00B091A5018091A6019091A7010895E0E0A3
:100E8A00F0E060E872E41CD30895A091C001B0912B
:100E9A00C1018091C2019091C3010895EAE0F7ED82
:100EAA0063E27AE3BFD20895DF01CB01EFE8F2EC07
:100EBA0065E77CE3F8D35FD20895E093C001F0932D
:100ECA00C1016093C2017093C3010895A091A80162
:100EDA00B091A9018091AA019091AB01DFCFA0E066
:100EEA00B0E080EE90E49ED20895E2E4F0E665EE8A
:100EFA007DE398D20895D7D33ED20895A091C40134
:100F0A00B091C5018091C6019091C7010895E093FF
:100F1A00C401F093C5016093C6017093C701089597
:100F2A00A091AC01B091AD018091AE019091AF0159
:100F3A00B5CFEA93A0E01ECBEAE0F7ED6FE171E4EA
:100F4A0004D30895E0E6F1E0FA93EA930895A1D371
:100F5A0084E00CDE28960895EA93A1E00BCBE7E73C
:100F6A00FEEB6FE77FE3F1D20895EAE6F1E0FA9348
:100F7A00EA930895EEE3F0E0FA93EA930895E09194
:100F8A00C001F091C1016091C2017091C30108953D
:100F9A00E0E0F0E06AE774E445D20895E6E4F0E0C0
:100FAA00FA93EA930895E4E7F1E0FA93EA9308954D
:100FBA00EEE7F1E0FA93EA930895E091C401F09123
:100FCA00C5016091C6017091C70108958DE08A95A7
:100FDA00F1F70895C3DAA3E0B0E024C1BA93AA9363
:100FEA000895A0E3ADDA88EC90E00197F1F708954F
:100FFA00AA81BB810895149633D30895ED91FD918A
:10100A003196FE93EE930895E9DF2497E0E0E883B2
:10101A00E9830895E885F985FA93EA930895E12F1B
:10102A001150E0300895AC81BD818E819F81E0E04E
:10103A00F0E060E271E4F6D1EC83FD836E837F8396
:10104A000895EC85FD856E857F850895EC81FD8187
:10105A006E817F81AC85BD858E859F8576D2089508
:10106A00AC85BD858E859F850895EDECFCEC6CEC16
:10107A007DE3D8D1EC87FD876E877F873F5F089530
:10108A00E0E0F0E060E271E4CDD10895EC87FD87FD
:10109A006E877F870895A0E0B0E080E09FE372D179
:1010AA000895AC81BD818E819F810895EDECFCECA1
:1010BA006CEC7DE3B7D10895A885B9851196A88708
:1010CA00B98711970895E02FE05DEC93E02F08951A
:1010DA00FF27662777271CD10895E885F985319679
:1010EA00E887F98708953197BF01A32FEAE00895A9
:1010FA00AE81BF8108952A93AF81B885E985FA85C3
:10110A0009950895FE01E65AFF4F0190F081E02DFE
:10111A0008953497DE01A65ABF4FED93FC930895C4
:10112A00AF81B885E985FA8509950895FE01769615
:10113A00EE87FF870895DE01A65ABF4F0D90BC9136
:10114A00A02D0895EA87FB876C877D870895DADFEB
:10115A00E0CFEA85FB856C857D850895EE87FF875C
:10116A000895AE85BF8538DD1E2F0895E4DF43CF8D
:10117A00E88BF98B6A8B7B8B08950B7FED89EA9359
:10118A00DE01A95ABF4F0D90BC91A02DFE01E75A6E
:10119A00FF4F0190F081E02D099550300895E889BC
:1011AA00F9896A897B89AA85BB858C859D8508957D
:1011BA00A889B9898A899B890895DE011C96E5D197
:1011CA004FD20895FA93EA93089554D20895EE817E
:1011DA00FF81F8CFE985FA856B857C850895E987D3
:1011EA00FA876B877C87089583DF1196AE83BF8366
:1011FA0011970895AA81BB818C819D810895EA8304
:10120A00FB836C837D830895EA81FB816C817D81F8
:10121A00A985BA858B859C850895A985BA858B850C
:10122A009C850895109639F080ED97E00197F1F7C3
:10123A00A8951197C9F7089530976040704009F052
:10124A0070580895552342F4503811F4E0FF04C051
:10125A003196691F791F6BF050E8572711F45F9395
:10126A00CFC05F3F31F0660F000C57956795752F19
:10127A0008955F9300200AF0CFC0C8C050E8192E25
:10128A001522880F991F9527550F879550E8072E25
:10129A000522660F771F7527550F6795089568947D
:1012AA0001C0E8945F93F2DF703818F07F3F08F4CA
:1012BA00A7C056E1571BAAF4519558300EF459307D
:1012CA0030F0EFEFFFEF6FEF7FE777F91AC077277C
:1012DA005523B9F0EE0FFF1F661F771F5A95D1F7F6
:1012EA0010C07727583028F0EF2FF62F672F585065
:1012FA00F9CF552331F076956795F795E7955A9585
:10130A00D1F700200AF445D15F910895689401C08D
:10131A00E894309760407040B1F0002426F07723BB
:10132A0012F4009436D1172E7EE1112032F07A950C
:10133A00EE0FFF1F661F111CF9CFEF2FF62F612D3D
:10134A005F938ADF5F9108954F93AF01FD01DA0140
:10135A00AB01BC01CA01402D012C142E4F910895F6
:10136A00EA0FFB1F681F0895E095F0956095EF5FFF
:10137A00FF4F6F4F08955F9381DF903871F150E806
:10138A00152604C05F937ADF903839F1703821F15D
:10139A00572F591B2BF112F4D7DFFACF583118F017
:1013AA00AA27BB278827583028F0AB2FB82F8827C1
:1013BA005850F9CF552329F08695B795A7955A9590
:1013CA00D9F7502D512572F0CBDF38F46795F79590
:1013DA00E795739513F420C0B7DF3EDF5F91089558
:1013EA00D8F7FBCFEA1BFB0B680B51F010F4009403
:1013FA00BBDF662392F3EE0FFF1F661F7A95CBF7CA
:10140A00EE27FF27662777275F910895EFEFFFEF13
:10141A006FE77FEF5F910895EFEFFFEF6FE77FE7E9
:10142A005F9108955F932ADF703851F3903841F342
:10143A0001240894791F23F41CF300203AF3ECCF1B
:10144A000F921F932F933F934F9311272227992788
:10145A00689FA0018F9F302D410D591F6B9F300D42
:10146A00411D591F8E9F27D0BF9F25D06A9F23D029
:10147A00BE9F1DD0AF9F1BD0AE9F110D291F391FD4
:10148A00491F591FE32FF42F652F522F4F913F9178
:10149A002F911F910F9066232AF0550FEE1FFF1F01
:1014AA00661F02C073954BF2CDDE5F910895100D51
:1014BA00211D391F02C0200D311D491F591F0895D2
:1014CA005F93DCDE703821F411200AF49FCFA4CF99
:1014DA00903809F495CF01240894970B1BF4D4F3A0
:1014EA000020F3CF792F1F932F933F934F9311240B
:1014FA001127222733274427552790E2AE17BF0723
:10150A008607410730F0AE1BBF0B860B410B0894D0
:10151A0001C08894551F221F331F111CAA1FBB1F0D
:10152A00881F441F9A9551F7F901612D4F913F91F8
:10153A002F911F91662332F0550FEE1FFF1F661F72
:10154A007A9543F27FDE5F91089599239AF0772383
:10155A0042F0971748F029F4AE17BF07860720F024
:10156A0031F098948894089598940894089518945A
:10157A00889408957723C2F7971798F3A9F7EA177B
:10158A00FB07680788F399F3ECCF0024AF0DB01D71
:10159A000895F09560957095E195FF4F6F4F7F4FD5
:1015AA000895FE2FFF0FFF0B6F2F7F2F08956F2FC8
:1015BA00660F660B762F0895002498E0AA0F001C88
:1015CA000E1A10F40E0E01C0A1609A95B9F7EA2F0F
:1015DA00A02D089539D0F0DF0EF4E19508953F93D8
:1015EA004F935F93002411244427552730E2AA0F12
:1015FA00BB1F881F991F001C111C441F551F0E1A60
:10160A001F0A460B570B28F40E0E1F1E461F571FA4
:10161A0001C0A1603A9559F7FD01BC01D001CA0188
:10162A005F914F913F910895E894A7FF02C0A19559
:10163A006894E7FDE195C0DFEA2F0EF4E19508957D
:10164A00CEDFFD01BC010895E894E7FF02C0E195F1
:10165A006894A7FF04C0A19500F8039400FA0895BE
:10166A00ED91FC9111970895ED91FD916D917C9109
:10167A0013970895E881F9816A817B810895A88189
:10168A00B9818A819B810895E883F9836A837B8380
:10169A0008957A936A93FA93EA9308959A938A93A8
:1016AA00BA93AA930895182E862F612D192E972F73
:1016BA00712D1B2EBF2FF12D1A2EAE2FE12D08955D
:1016CA00309760407040089500240A160B060806F9
:1016DA00090608955A934A933A932A931A930A93B6
:1016EA0008955D814C813B812A8119810881089581
:00000001FF
